S012000065615F6D6F64313032332E73726563E7
S113000050240020210100001D0100001D010000FA
S113001000000000000000000000000000000000DC
S11300200000000000000000000000001D010000AE
S113003000000000000000001D0100001D01000080
S11300401D0100001D0100001D0100001D01000034
S11300501D0100001D0100001D0100001D01000024
S11300601D0100001D0100001D0100001D01000014
S11300701D0100001D0100001D0100001D01000004
S11300801D0100001D0100001D0100001D010000F4
S11300901D0100001D0100001D0100001D010000E4
S11300A01D0100001D0100001D0100001D010000D4
S11300B01D0100001D0100001D01000010B5064CCB
S11300C02378002B07D1054B002B02D0044800E015
S11300D000BF0123237010BD300400200000000085
S11300E098030000084B10B5002B03D007490848BB
S11300F000E000BF07480368002B00D110BD064B89
S1130100002BFBD09847F9E70000000034040020DE
S1130110980300009803000000000000FEE7C046BA
S113012010B51B4B1B4A9A4203D01B4B184A9A42E8
S113013004D31A4B1A4A9A4210D31EE0194A164B9A
S113014003339B1A9B0801339B000022104811497A
S11301508C58845004329A42FAD1EAE7124A0F4B7F
S113016003339B1A9B0801339B0000220C48002197
S11301701418216004329A42FAD10C4AFF210C4B24
S11301808B4393600B4B98470B4B9847FEE7C04655
S11301900000002098030000300400204C040020DC
S11301A030040020040000203404002000ED00E0AE
S11301B000000000F5010000CD010000014A024BDF
S11301C01A60704700093D000000002010B5074B7D
S11301D098478223DB051A68802109020A431A60C2
S11301E01969034A0A401A61FEE7C046BD010000CE
S11301F0FF7FFFFF70B50D4E0D4D0024AD1BAD10FC
S113020005D0A300F35801349847A542F9D100F072
S1130210B1F8084E084D0024AD1BAD1005D0A30065
S1130220F35801349847A542F9D170BD800300000A
S1130230800300008003000088030000034B10B516
S1130240002B02D0024800F005F810BD00000000A9
S11302506502000010B5010000230022002000F018
S11302601BF810BD70B5094B094CE41AA41009D051
S1130270084AA518AD00ED182B68013C9847043DC9
S1130280002CF9D100F080F870BDC0469403000042
S113029098030000FFFFFF3FF8B544465F4656460B
S11302A04D469B462F4BF0B41C68A4235B0005000D
S11302B0E0580E00904600284BD043681F2B0DDCFD
S11302C05C1C002D21D102339B0044601E50002091
S11302D03CBC90469946A246AB46F8BD224B002B47
S11302E03CD0C820400000E000BF002836D0A42243
S11302F000235200A15843600160A0504032835053
S1130300043283500124002DDDD09A0091468144AB
S1130310424688214F467A50C42252009046804477
S113032042468739994012688A460A4394464246AF
S113033061461160842249465F4652008F50022D67
S1130340C1D1020055468D32FF3211680D4315604C
S1130350B9E720004D30FF30E050AEE701204042C5
S1130360B6E7C04670030000000000004300000030
S113037008000020F8B5C046F8BC08BC9E4670478B
S11303803D020000E5000000F8B5C046F8BC08BC1A
S10B03909E467047BD00000009
S113039800093D000000000000000000F4020020F5
S11303A85C030020C40300200000000000000000DB
S11303B80000000000000000000000000000000031
S11303C80000000000000000000000006C030000B2
S11303D80000000000000000000000000000000011
S11303E80000000000000000000000000000000001
S11303F800000000000000000000000000000000F1
S113040800000000000000000000000000000000E0
S113041800000000000000000000000000000000D0
S113042800000000000000000000000000000000C0
S113043800000000000000000000000000000000B0
S113044801000000000000000E33CDAB34126DE64D
S1130458ECDE05000B0000000000000000000000B6
S11304680000000000000000000000000000000080
S11304780000000000000000000000000000000070
S11304880000000000000000000000000000000060
S11304980000000000000000000000000000000050
S9030000FC
