S00F00006D6F64313032332E737265630F
S113000058240020210100001D0100001D010000F2
S113001000000000000000000000000000000000DC
S11300200000000000000000000000001D010000AE
S113003000000000000000001D0100001D01000080
S11300401D0100001D0100001D0100001D01000034
S11300501D0100001D0100001D0100001D01000024
S11300601D0100001D0100001D0100001D01000014
S11300701D0100001D0100001D0100001D01000004
S11300801D0100001D0100001D0100001D010000F4
S11300900D0200001D0100001D0100001D010000F3
S11300A01D0100001D0100001D0100001D010000D4
S11300B01D0100001D0100001D01000010B5064CCB
S11300C02378002B07D1054B002B02D0044800E015
S11300D000BF0123237010BD300400200000000085
S11300E068040000084B10B5002B03D007490848EA
S11300F000E000BF07480368002B00D110BD064B89
S1130100002BFBD09847F9E70000000034040020DE
S1130110680400006804000000000000FEE7C04618
S113012010B51B4B1B4A9A4203D01B4B184A9A42E8
S113013004D31A4B1A4A9A4210D31EE0194A164B9A
S113014003339B1A9B0801339B000022104811497A
S11301508C58845004329A42FAD1EAE7124A0F4B7F
S113016003339B1A9B0801339B0000220C48002197
S11301701418216004329A42FAD10C4AFF210C4B24
S11301808B4393600B4B98470B4B9847FEE7C04655
S113019000000020680400003004002058040020FF
S11301A030040020040000203404002000ED00E0AE
S11301B00000000049020000CD010000014A024B8A
S11301C01A60704700093D000000002010B59EB081
S11301D00B4B98478224E4052368802212021343C0
S11301E023600F231C932100103170226846054BB5
S11301F0984720686168A268E368034CA047FEE75B
S1130200BD010000910200002D020000064A53685F
S113021001335360FA229200934203D1024A1368D5
S1130220013313607047C0464C04002084B0009032
S1130230019102920393059A012320998B40134361
S1130240059304B07047C04670B50D4E0D4D0024A3
S1130250AD1BAD1005D0A300F35801349847A54257
S1130260F9D100F0EFF8084E084D0024AD1BAD1095
S113027005D0A300F35801349847A542F9D170BDC5
S11302805004000050040000500400005804000012
S113029070B50F2A32D90C0004430B00A40731D1E6
S11302A015000400103D2D0901352D0149191E6862
S11302B026605E6866609E68A660DE681033E6604D
S11302C010349942F3D10F2345191340032B1BD942
S11302D01C1F0023A4080134A400CE58EE5004339C
S11302E09C42FAD103232D1909191A4005D0002381
S11302F0CC5CEC5401339A42FAD170BD0500002A5B
S1130300F5D1FAE70500F2E71A00F8E7034B10B558
S1130310002B02D0024800F005F810BD00000000D8
S11303203503000010B5010000230022002000F076
S11303301BF810BD70B5094B094CE41AA41009D080
S1130340084AA518AD00ED182B68013C9847043DF8
S1130350002CF9D100F080F870BDC04664040000A0
S113036068040000FFFFFF3FF8B544465F46564669
S11303704D469B462F4BF0B41C68A4235B0005003C
S1130380E0580E00904600284BD043681F2B0DDC2C
S11303905C1C002D21D102339B0044601E500020C0
S11303A03CBC90469946A246AB46F8BD224B002B76
S11303B03CD0C820400000E000BF002836D0A42272
S11303C000235200A15843600160A0504032835082
S11303D0043283500124002DDDD09A0091468144DB
S11303E0424688214F467A50C422520090468044A7
S11303F042468739994012688A460A4394464246DF
S113040061461160842249465F4652008F50022D96
S1130410C1D1020055468D32FF3211680D4315607B
S1130420B9E720004D30FF30E050AEE701204042F4
S1130430B6E7C0464004000000000000430000008E
S113044008000020F8B5C046F8BC08BC9E467047BA
S11304500D030000E5000000F8B5C046F8BC08BC78
S10B04609E467047BD00000038
S113046800093D000000000000000000F402002024
S11304785C030020C403002000000000000000000A
S11304880000000000000000000000000000000060
S11304980000000000000000000000003C04000010
S11304A80000000000000000000000000000000040
S11304B80000000000000000000000000000000030
S11304C80000000000000000000000000000000020
S11304D80000000000000000000000000000000010
S11304E80000000000000000000000000000000000
S11304F800000000000000000000000000000000F0
S113050800000000000000000000000000000000DF
S113051801000000000000000E33CDAB34126DE67C
S1130528ECDE05000B0000000000000000000000E5
S113053800000000000000000000000000000000AF
S1130548000000000000000000000000000000009F
S1130558000000000000000000000000000000008F
S1130568000000000000000000000000000000007F
S9030000FC
