S00F00006D6F64313032332E737265630F
S113000058240020210100001D0100001D010000F2
S113001000000000000000000000000000000000DC
S11300200000000000000000000000001D010000AE
S113003000000000000000001D0100001D01000080
S11300401D0100001D0100001D0100001D01000034
S11300501D0100001D0100001D0100001D01000024
S11300601D0100001D0100001D0100001D01000014
S11300701D0100001D0100001D0100001D01000004
S11300801D0100001D0100001D0100001D010000F4
S1130090490200001D0100001D0100001D010000B7
S11300A01D0100001D0100001D0100001D010000D4
S11300B01D0100001D0100001D01000010B5064CCB
S11300C02378002B07D1054B002B02D0044800E015
S11300D000BF0123237010BD300400200000000085
S11300E0B0040000084B10B5002B03D007490848A2
S11300F000E000BF07480368002B00D110BD064B89
S1130100002BFBD09847F9E70000000034040020DE
S1130110B0040000B004000000000000FEE7C04688
S113012010B51B4B1B4A9A4203D01B4B184A9A42E8
S113013004D31A4B1A4A9A4210D31EE0194A164B9A
S113014003339B1A9B0801339B000022104811497A
S11301508C58845004329A42FAD1EAE7124A0F4B7F
S113016003339B1A9B0801339B0000220C48002197
S11301701418216004329A42FAD10C4AFF210C4B24
S11301808B4393600B4B98470B4B9847FEE7C04655
S113019000000020B00400003004002058040020B7
S11301A030040020040000203404002000ED00E0AE
S11301B0000000000D030000CD010000014A024BC5
S11301C01A60704700093D000000002070B5164B0E
S11301D0984701220F218220C005144DA847144CD2
S11301E001220F212000A8470F212000114B98471E
S11301F00F212000104B984707220F2120000F4B9E
S113020098470F4A536A0F490B43536213005B68C4
S1130210536A802149000B435362F1398220C0059F
S1130220054B9847FEE7C046BD010000750200007B
S113023080000041CD020000C1020000D90200008C
S1130240001C0040060C0200084A53680133536046
S1130250FA229200934203D1044A136801331360D3
S1130260034A917A10230B43937270474C04002085
S11302700030004210B5012A0AD0002A02D0022A16
S11302800CD01CE0036801228A409343036016E00B
S1130290026801238B401343036010E002680123CA
S11302A01C008C40A24302604022825C5207D20FA1
S11302B041184031087893400343DBB20B7010BD02
S11302C0426901238B401343436170474369012210
S11302D08A4093434361704730B54908431840331B
S11302E01D7801242C431C70CB0706D441183031EF
S11302F00B781A43D2B20A7006E0411830310B78F9
S113030012011A43D2B20A7030BDC04670B50D4E08
S11303100D4D0024AD1BAD1005D0A300F3580134DE
S11303209847A542F9D100F0B1F8084E084D0024D1
S1130330AD1BAD1005D0A300F35801349847A54276
S1130340F9D170BD980400009804000098040000DE
S1130350A0040000034B10B5002B02D0024800F0AB
S113036005F810BD000000007D03000010B5010079
S113037000230022002000F01BF810BD70B5094BCB
S1130380094CE41AA41009D0084AA518AD00ED18C8
S11303902B68013C9847043D002CF9D100F080F80B
S11303A070BDC046AC040000B0040000FFFFFF3F76
S11303B0F8B544465F4656464D469B462F4BF0B42F
S11303C01C68A4235B000500E0580E00904600283A
S11303D04BD043681F2B0DDC5C1C002D21D1023354
S11303E09B0044601E5000203CBC90469946A246A7
S11303F0AB46F8BD224B002B3CD0C820400000E0A7
S113040000BF002836D0A42200235200A158436024
S11304100160A05040328350043283500124002DE7
S1130420DDD09A0091468144424688214F467A5055
S1130430C42252009046804442468739994012684B
S11304408A460A43944642466146116084224946DC
S11304505F4652008F50022DC1D1020055468D32A5
S1130460FF3211680D431560B9E720004D30FF30AD
S1130470E050AEE701204042B6E7C04688040000E1
S1130480000000004300000008000020F8B5C0464A
S1130490F8BC08BC9E46704755030000E500000008
S11304A0F8B5C046F8BC08BC9E467047BD000000C5
S11304B000093D000000000000000000F4020020DC
S11304C05C030020C40300200000000000000000C2
S11304D00000000000000000000000000000000018
S11304E00000000000000000000000008404000080
S11304F000000000000000000000000000000000F8
S113050000000000000000000000000000000000E7
S113051000000000000000000000000000000000D7
S113052000000000000000000000000000000000C7
S113053000000000000000000000000000000000B7
S113054000000000000000000000000000000000A7
S11305500000000000000000000000000000000097
S113056001000000000000000E33CDAB34126DE634
S1130570ECDE05000B00000000000000000000009D
S11305800000000000000000000000000000000067
S11305900000000000000000000000000000000057
S11305A00000000000000000000000000000000047
S11305B00000000000000000000000000000000037
S9030000FC
