S00F00006D6F64313032332E737265630F
S113000068240020210100001D0100001D010000E2
S113001000000000000000000000000000000000DC
S11300200000000000000000000000001D010000AE
S113003000000000000000001D0100001D01000080
S11300401D0100001D0100001D0100001D01000034
S11300501D0100001D0100001D0100001D01000024
S11300601D0100001D0100001D0100001D01000014
S11300701D0100001D0100001D0100001D01000004
S11300801D0100001D0100001D0100001D010000F4
S1130090ED0200001D0100001D0100001D01000013
S11300A01D0100001D0100001D0100001D010000D4
S11300B01D0100001D0100001D01000010B5064CCB
S11300C02378002B07D1054B002B02D0044800E015
S11300D000BF0123237010BD300400200000000085
S11300E044060000084B10B5002B03D0074908480C
S11300F000E000BF07480368002B00D110BD064B89
S1130100002BFBD09847F9E70000000034040020DE
S1130110440600004406000000000000FEE7C0465C
S113012010B51B4B1B4A9A4203D01B4B184A9A42E8
S113013004D31A4B1A4A9A4210D31EE0194A164B9A
S113014003339B1A9B0801339B000022104811497A
S11301508C58845004329A42FAD1EAE7124A0F4B7F
S113016003339B1A9B0801339B0000220C48002197
S11301701418216004329A42FAD10C4AFF210C4B24
S11301808B4393600B4B98470B4B9847FEE7C04655
S11301900000002044060000300400206404002015
S11301A030040020040000203404002000ED00E0AE
S11301B000000000A1040000CD010000014A024B30
S11301C01A60704700093D000000002070B5134B11
S11301D09847134B1868134B9847134B984782243E
S11301E0E40501220F212000104B98470F21200025
S11301F00F4B98470F4E104D104CB04728602368A2
S1130200C01A0F4B9842F8D90F218220C0050D4B1C
S11302109847084B9847094B1860EEE7BD0100006A
S113022000000020650200004902000025030000D0
S11302307103000019030000580400205C0400202E
S1130240E70300007D030000044B00221A605A609B
S1130250034A116802230B43136070474C040020C7
S11302600030004270B51A491A4B98471A4B9860EF
S11302701A4AD369802149010B43D361184B1A6888
S1130280862189000A431A60197907220A431A71E0
S1130290D988144A0A43DA805A7A10210A43D2B21E
S11302A05A7200225A61D8610F4A80204003802488
S11302B010510134FF341051C525AD005459FF26A7
S11302C0B443545110605A7A1143597270BDC046F8
S11302D040420F00890300004C0400200008004045
S11302E0003000420110000000E100E0084A5368B9
S11302F001335360FA229200934203D1044A1368F3
S113030001331360034A917A10230B4393727047AD
S11303104C04002000300042014B18687047C0466E
S11303204C04002010B5012A0AD0002A02D0022A67
S11303300CD01CE0036801228A409343036016E05A
S1130340026801238B401343036010E00268012319
S11303501C008C40A24302604022825C5207D20FF0
S113036041184031087893400343DBB20B7010BD51
S1130370426901238B40134343617047C2690123DF
S11303808B401343C3617047002243088B4274D3EC
S113039003098B425FD3030A8B4244D3030B8B4282
S11303A028D3030C8B420DD3FF22090212BA030C8B
S11303B08B4202D31212090265D0030B8B4219D36C
S11303C000E0090AC30B8B4201D3CB03C01A52418C
S11303D0830B8B4201D38B03C01A5241430B8B42D4
S11303E001D34B03C01A5241030B8B4201D30B03BD
S11303F0C01A5241C30A8B4201D3CB02C01A5241E4
S1130400830A8B4201D38B02C01A5241430A8B42A6
S113041001D34B02C01A5241030A8B4201D30B028F
S1130420C01A5241CDD2C3098B4201D3CB01C01AA9
S1130430524183098B4201D38B01C01A52414309B3
S11304408B4201D34B01C01A524103098B4201D3A1
S11304500B01C01A5241C3088B4201D3CB00C01A0E
S1130460524183088B4201D38B00C01A5241430886
S11304708B4201D34B00C01A5241411A00D20146AB
S1130480524110467047FFE701B5002000F006F81E
S113049002BDC0460029F7D076E770477047C046D2
S11304A070B50D4E0D4D0024AD1BAD1005D0A3004D
S11304B0F35801349847A542F9D100F0B1F8084E39
S11304C0084D0024AD1BAD1005D0A300F358013432
S11304D09847A542F9D170BD2C0600002C060000F7
S11304E02C06000034060000034B10B5002B02D08C
S11304F0024800F005F810BD0000000011050000DE
S113050010B5010000230022002000F01BF810BDEC
S113051070B5094B094CE41AA41009D0084AA5186F
S1130520AD00ED182B68013C9847043D002CF9D12F
S113053000F080F870BDC04640060000440600008C
S1130540FFFFFF3FF8B544465F4656464D469B467F
S11305502F4BF0B41C68A4235B000500E0580E0088
S1130560904600284BD043681F2B0DDC5C1C002DEB
S113057021D102339B0044601E5000203CBC9046B5
S11305809946A246AB46F8BD224B002B3CD0C8206E
S1130590400000E000BF002836D0A422002352000F
S11305A0A15843600160A05040328350043283500C
S11305B00124002DDDD09A009146814442468821D1
S11305C04F467A50C42252009046804442468739AE
S11305D0994012688A460A4394464246614611602D
S11305E0842249465F4652008F50022DC1D1020039
S11305F055468D32FF3211680D431560B9E720006E
S11306004D30FF30E050AEE701204042B6E7C0462F
S11306101C06000000000000430000000800002049
S1130620F8B5C046F8BC08BC9E467047E904000013
S1130630E5000000F8B5C046F8BC08BC9E4670470B
S1070640BD000000F5
S113064400093D000000000000000000F402002046
S11306545C030020C403002000000000000000002C
S11306640000000000000000000000000000000082
S11306740000000000000000000000001806000054
S11306840000000000000000000000000000000062
S11306940000000000000000000000000000000052
S11306A40000000000000000000000000000000042
S11306B40000000000000000000000000000000032
S11306C40000000000000000000000000000000022
S11306D40000000000000000000000000000000012
S11306E40000000000000000000000000000000002
S11306F401000000000000000E33CDAB34126DE69F
S1130704ECDE05000B000000000000000000000007
S113071400000000000000000000000000000000D1
S113072400000000000000000000000000000000C1
S113073400000000000000000000000000000000B1
S113074400000000000000000000000000000000A1
S9030000FC
